:100000000C9462000C948A000C948A000C948A0070
:100010000C948A000C948A000C948A000C948A0038
:100020000C948A000C948A000C948A000C948A0028
:100030000C948A000C9497040C948A000C948A0007
:100040000C94F5030C948A000C9465040C943F0402
:100050000C948A000C948A000C948A000C948A00F8
:100060000C94BC040C948A000000000023002600BD
:10007000290000000008000201000003040700003E
:1000800000000000000000000000250028002B00F8
:1000900000000000240027002A00040404040404D3
:1000A0000404020202020202030303030303010227
:1000B00004081020408001020408102001020408F6
:1000C0001020EA0511241FBECFEFD8E0DEBFCDBF60
:1000D00011E0A0E0B1E0E6E3F6E102C005900D9288
:1000E000A438B107D9F723E0A4E8B1E001C01D921C
:1000F000AB32B207E1F710E0C2E6D0E004C02197CE
:10010000FE010E940E0BC136D107C9F70E942306DB
:100110000C94190B0C94000090E0FC01E255FF4F89
:100120002491FC01E656FF4F8491882399F090E0DA
:10013000880F991FFC01E057FF4FA591B491FC0176
:10014000EA57FF4F859194918FB7F894EC91E22B89
:10015000EC938FBF0895E0918202F09183020190A9
:10016000F081E02D682F82E892E00994833081F0DD
:1001700028F4813099F08230A1F008958730A9F0F9
:100180008830B9F08430D1F4809180008F7D03C035
:10019000809180008F7780938000089584B58F7759
:1001A00002C084B58F7D84BD08958091B0008F77A3
:1001B00003C08091B0008F7D8093B0000895CF93ED
:1001C000DF93EFE7F0E08491EBEBF0E0D491E7EA26
:1001D000F0E0C491CC2391F081110E94B600EC2F85
:1001E000F0E0EE0FFF1FE859FF4FA591B491EC919D
:1001F000ED2381E090E021F480E002C080E090E017
:10020000DF91CF9108951F93CF93DF93282F30E094
:10021000F901EE58FF4F8491F901E255FF4FD49157
:10022000F901E656FF4FC491CC23C9F0162F811176
:100230000E94B600EC2FF0E0EE0FFF1FEA57FF4FD1
:10024000A591B4918FB7F894111105C09C91ED2F31
:10025000E095E92302C0EC91ED2BEC938FBFDF9189
:10026000CF911F9108952FB7F89460917E027091FD
:100270007F0280918002909181022FBF0895CF92DA
:10028000DF92EF92FF920F931F93CF93DF936C0156
:100290007A018B01C0E0D0E0CE15DF0589F0D801EE
:1002A0006D918D01D601ED91FC910190F081E02DD1
:1002B000C6010995892B11F47E0102C02196ECCF6D
:1002C000C701DF91CF911F910F91FF90EF90DF90C9
:1002D000CF900895FC01918D828D981761F0828DE9
:1002E000DF01A80FB11D5D968C91928D9F5F9F736A
:1002F000928F90E008958FEF9FEF0895FC01918D0C
:10030000828D981731F0828DE80FF11D858D90E078
:1003100008958FEF9FEF0895FC01918D228D892F15
:1003200090E0805C9F4F821B91098F7399270895FD
:1003300082E892E00E948C0121E0892B09F420E000
:10034000822F0895FC01848DDF01A80FB11DA35AEF
:10035000BF4F2C91848D90E001968F739927848FE5
:10036000A689B7892C93A089B1898C9180648C93DC
:10037000938D848D981306C00288F389E02D8081C7
:100380008F7D80830895EF92FF920F931F93CF93F9
:10039000DF93EC0181E0888F9B8D8C8D981305C0D5
:1003A000E889F989808185FD24C0F62E0B8D10E047
:1003B0000F5F1F4F0F731127E02E8C8DE8120CC0BA
:1003C0000FB607FCFACFE889F989808185FFF5CF60
:1003D000CE010E94A201F1CF8B8DFE01E80FF11D2D
:1003E000E35AFF4FF0820B8FEA89FB89808180629C
:1003F00007C0EE89FF896083E889F989808180647C
:10040000808381E090E0DF91CF911F910F91FF9069
:10041000EF900895CF93DF93EC01888D8823C9F086
:10042000EA89FB89808185FD05C0A889B9898C91FD
:1004300086FD0FC00FB607FCF5CF808185FFF2CF98
:10044000A889B9898C9185FFEDCFCE010E94A201C8
:10045000E7CFDF91CF91089580E090E0892B29F0DC
:100460000E94980181110C940000089508958FEF67
:100470009FEF08958FEF9FEF08958091F40190E032
:10048000919581959109089585ED8093BC008091A7
:10049000BC0084FDFCCF1092CE0108954091A801CC
:1004A000262F30E0240F311D21323105DCF420915C
:1004B000CE012430C9F4FC0180E090E0861758F4A6
:1004C0003091A8012191DC01AA57BE4FA30FB11DA5
:1004D0002C930196F3CF8091A801680F6093A80137
:1004E00080E0089581E0089582E00895CF93DF933E
:1004F00000D0CDB7DEB7CB01642F49835A830E9469
:100500004E024981842F5A81952F0F900F90DF91D1
:10051000CF910895CF93DF931F92CDB7DEB7698354
:1005200061E0CE0101960E944E0281E090E00F90C2
:10053000DF91CF910895009769F0FC0101900020B0
:10054000E9F73197AF01481B590BBC0182E892E0F3
:100550000C943F0180E090E008958F929F92AF92BB
:10056000BF920F931F93CF93DF93CDB7DEB7A197C1
:100570000FB6F894DEBF0FBECDBF19A2423008F40B
:100580004AE08E010F5D1F4F842E912CA12CB12CBF
:10059000A50194010E94EC0AE62FB901CA0101509D
:1005A0001109EA3014F4E05D01C0E95CD801EC9374
:1005B000232B242B252B61F7C8010E949B02A196B7
:1005C0000FB6F894DEBF0FBECDBFDF91CF911F9164
:1005D0000F91BF90AF909F908F900895CF92DF9230
:1005E000EF92FF92CF93DF936C01990FEE08FF0813
:1005F000F7FE12C08DE20E94AB00EC016627772760
:10060000CB016C197D098E099F094AE00E94AD0259
:100610007C01EC0EFD1E06C04AE0C701B6010E9437
:10062000AD027C0180E291E00E949B028E0D9F1D35
:10063000DF91CF91FF90EF90DF90CF9008954F9290
:100640005F926F927F928F929F92AF92BF92CF9262
:10065000DF92EF92FF926B017C01B42E9B01AC0103
:100660000E94E70A882319F083E291E027C026015F
:100670003701E89477F82FEF3FEF4FE75FE7C301CB
:10068000B2010E94E70A81110DC02FEF3FEF4FE743
:100690005FE7C301B2010E941D0918161CF487E22E
:1006A00091E00CC02FEF3FEF4FE75FE4C701B601C9
:1006B0000E94750A181684F48BE291E0FF90EF9087
:1006C000DF90CF90BF90AF909F908F907F906F9072
:1006D0005F904F900C949B022FEF3FEF4FE75FEC42
:1006E000C701B6010E941D0987FDE6CF20E030E07A
:1006F000A901C701B6010E941D0987FF09C08DE24B
:100700000E94AB004C01F7FAF094F7F8F09402C0A5
:10071000812C912CA12C60E070E080E09FE3AB1471
:1007200041F020E030E040E251E40E942209A3942D
:10073000F6CF9B01AC01C701B6010E94B1082B01A5
:100740003C010E9494096B017C010E94C3099B013A
:10075000AC01C301B2010E94B0082B013C014AE088
:10076000C701B6010E94AD027C01E80CF91CBB2058
:1007700029F08EE20E94AB00E80EF91EDB2CDD2092
:1007800021F120E030E040E251E4C301B2010E94D7
:100790007A0A2B013C010E9494094B01A12CB12C37
:1007A0004AE0C501B4010E94AD02E80EF91EC50180
:1007B000B4010E94C3099B01AC01C301B2010E94B4
:1007C000B0082B013C01DA94DACFC701FF90EF901B
:1007D000DF90CF90BF90AF909F908F907F906F9061
:1007E0005F904F9008950E94140B1F920F920FB6C6
:1007F0000F9211242F933F938F939F93AF93BF93A7
:1008000080917E0290917F02A0918002B09181023E
:1008100030917D0223E0230F2D3720F40196A11D96
:10082000B11D05C026E8230F0296A11DB11D20931E
:100830007D0280937E0290937F02A0938002B0930A
:1008400081028091790290917A02A0917B02B0910D
:100850007C020196A11DB11D8093790290937A02CA
:10086000A0937B02B0937C02BF91AF919F918F9137
:100870003F912F910F900FBE0F901F9018951F92D0
:100880000F920FB60F9211242F933F934F935F93C4
:100890006F937F938F939F93AF93BF93EF93FF9348
:1008A00082E892E00E94A201FF91EF91BF91AF9187
:1008B0009F918F917F916F915F914F913F912F9178
:1008C0000F900FBE0F901F9018951F920F920FB6AA
:1008D0000F9211242F938F939F93EF93FF93E091A7
:1008E0009202F09193028081E0919802F091990236
:1008F00082FD12C0908180919B028F5F8F73209147
:100900009C02821751F0E0919B02F0E0EE57FD4F00
:10091000958F80939B0201C08081FF91EF919F9101
:100920008F912F910F900FBE0F901F9018951F92CF
:100930000F920FB60F9211242F933F934F935F9313
:100940006F937F938F939F93AF93BF93EF93FF9397
:10095000E0E0F0E00995FF91EF91BF91AF919F9199
:100960008F917F916F915F914F913F912F910F9058
:100970000FBE0F901F9018951F920F920FB60F92F7
:1009800011242F933F934F935F936F937F938F9394
:100990009F93AF93BF93EF93FF938091B900887FAC
:1009A000803609F49CC068F5883209F45BC090F485
:1009B000803109F454C038F4882309F4F6C0883033
:1009C00009F44DC0F6C0883109F44CC0803209F4F6
:1009D0005DC0EFC0803409F468C048F4803309F486
:1009E00055C0883309F0E5C08093CD01D8C080356B
:1009F00009F44FC0883509F45DC0883409F0D9C0C6
:100A0000D6C0883909F4C7C0A8F4883709F467C08C
:100A100038F4883609F463C0803709F460C0C9C06F
:100A2000883809F4B8C0803909F45FC0803809F00B
:100A3000C0C05BC0803B09F486C038F4803A09F43A
:100A400066C0883A09F47FC0B4C0803C09F4A7C0EE
:100A5000883C09F4A4C0883B09F48AC0AAC08091EC
:100A6000F30110C09091F2018091F101981770F597
:100A7000E091F20181E08E0F8093F201F0E0EF52FD
:100A8000FE4F80818093BB0085EC86C08093CD01B2
:100A90008EC0E091F20181E08E0F8093F20180918F
:100AA000BB00F0E0EF52FE4F80839091F201809105
:100AB000F1016EC0E091F20181E08E0F8093F201AE
:100AC0008091BB00F0E0EF52FE4F80838091D00117
:100AD00081116DC081E08093CF0184EA61C083E021
:100AE0008093CE011092CC01CFCF8091CC01803287
:100AF00008F051C0E091CC0181E08E0F8093CC01D1
:100B00008091BB00F0E0E455FE4F8083BDCF85ECC3
:100B10008093BC001092CE018091CC01803230F4E1
:100B2000E091CC01F0E0E455FE4F10826091CC01E1
:100B300070E0E091AA01F091AB018CEA91E0099597
:100B40001092CC0136C084E08093CE011092A901AE
:100B50001092A801E091A601F091A701099580915A
:100B6000A801811105C081E08093A801109286013F
:100B7000E091A90181E08E0F8093A901F0E0EA578E
:100B8000FE4F80818093BB009091A9018091A801C4
:100B9000981708F479CF85E88093BC000AC085ECEB
:100BA0008093BC001092CE0104C01092CD010E942F
:100BB0004402FF91EF91BF91AF919F918F917F91EF
:100BC0006F915F914F913F912F910F900FBE0F90BA
:100BD0001F901895E2E8F2E01382128288EE93E00B
:100BE000A0E0B0E084839583A683B78324E031E05E
:100BF0003183208325EC30E03587248724EC30E0F6
:100C00003787268720EC30E0318B208B21EC30E0D9
:100C1000338B228B22EC30E0358B248B26EC30E0BA
:100C2000378B268B118E128E138E148EEFE1F3E02C
:100C30001382128284839583A683B78384E191E033
:100C4000918380830895789484B5826084BD84B54F
:100C5000816084BD85B5826085BD85B5816085BDB7
:100C600080916E00816080936E001092810080916F
:100C700081008260809381008091810081608093F7
:100C80008100809180008160809380008091B1001C
:100C900084608093B1008091B00081608093B00047
:100CA00080917A00846080937A0080917A008260DB
:100CB00080937A0080917A00816080937A0080919D
:100CC0007A00806880937A001092C1008DE00E94C3
:100CD0008C0084E00E948C00E0919202F0919302DB
:100CE000C2E0C083E0918E02F0918F021082E09109
:100CF0009002F09191028FEC808310929A02E09121
:100D00009602F091970286E08083E0919402F09140
:100D10009502808180618083E0919402F091950238
:100D2000808188608083E0919402F09195028081B7
:100D300080688083E0919402F091950280818F7D9C
:100D400080838FE291E00E949B0280E291E00E940A
:100D50009B0261E084E00E94030180E180938100B6
:100D600010928000C093F70180E29EE49093F60118
:100D70008093F501909387008093860082E18093B1
:100D80008100C1E002E010E022242394312C809104
:100D9000710281110CC00E94330160936D02709347
:100DA0006E0280936F0290937002C09371028091E3
:100DB000650281110CC00E9433016093610270933F
:100DC00062028093630290936402C09365028091F3
:100DD000590281110CC00E94330160935502709337
:100DE00056028093570290935802C0935902809103
:100DF0005402882309F485C0209104023091050231
:100E000080910602909107022817390774F4E09048
:100E10000402F0900502209106023091070240E0A2
:100E200050E060E070E0CB0109C0E0900602F09075
:100E300007022091040230910502F1CFFA01E85F28
:100E4000FD4FA081B181AE15BF055CF46701FF0CB9
:100E5000EE08FF086C0D7D1D8E1D9F1DE080F1804A
:100E60001AC0A081B1812A173B075CF42901330F16
:100E700066087708640D751D861D971D20813181D8
:100E80000AC040805180052C000C66087708640D6C
:100E9000751D861D971D4E5F5F4F4C34510571F6D1
:100EA0000E94C50920E030E048E152E40E94220996
:100EB00020E030E040EA50E40E947A0A20E030E08E
:100EC00040E85AE30E947A0A60930002709301029C
:100ED000809302029093030220E030E040E650E469
:100EE0000E947A0A20E030E0A9010E94B1086093D4
:100EF000FC017093FD018093FE019093FF0110921D
:100F000054020E94330180906D0290906E02A09076
:100F10006F02B0907002DC01CB0188199909AA090F
:100F2000BB0981329340A105B10508F454C0A090DB
:100F3000FA01B090FB018090F8019090F901409087
:100F4000FC015090FD016090FE017090FF01C09087
:100F50000002D0900102E0900202F090030284E4CB
:100F600091E00E949B0242E0C701B6010E941F036C
:100F70008DE491E00E949B0242E0C301B2010E9415
:100F80001F0380E291E00E949B028CE591E00E94A9
:100F90009B02C4010E94EE0281E791E00E949B0245
:100FA000C5010E94EE020E94DF00682F6C278DE0D1
:100FB0000E9403010E94DF00682F6C278DE00E94D1
:100FC00003010E94330160936D0270936E0280935F
:100FD0006F02909370028091FA019091FB01813031
:100FE000910509F446C01CF4892B49F0B6C0823043
:100FF000910509F484C0039709F497C0AEC0A0908E
:10100000F801B090F9018AE0A816B1043CF083E041
:1010100090E09093FB018093FA019FC02AE939E99F
:1010200049EC50E46091FC017091FD018091FE015A
:101030009091FF010E94750A18160CF08EC060E0B6
:1010400084E00E9403013092FB012092FA010E9489
:101050003301609361027093620280936302909304
:1010600064029FEFA91AB90AB092F901A092F8019F
:1010700074C026E636E646EB50E46091FC017091C0
:10108000FD018091FE019091FF010E941D0987FFE3
:101090000DC061E084E00E9403011092FB011092F8
:1010A000FA011092F9011092F80157C00E94330121
:1010B0008090610290906202A0906302B0906402FE
:1010C000DC01CB0188199909AA09BB09893E934023
:1010D000A105B10508F441C061E084E00E9403016C
:1010E0001093FB010093FA010E94330160935502B3
:1010F0007093560280935702909358022EC00E941C
:1011000033018090550290905602A0905702B09003
:101110005802DC01CB0188199909AA09BB09813859
:101120009843A140B105C8F014C026E636E646EB68
:1011300050E46091FC017091FD018091FE0190915D
:10114000FF010E941D0987FF08C01092F90110924B
:10115000F8011092FB011092FA010E942C0217CEA6
:101160005058BB27AA270E94C8080C943B0A0E942B
:101170002D0A38F00E94340A20F039F49F3F19F408
:1011800026F40C942A0A0EF4E095E7FB0C94240A4A
:10119000E92F0E944C0A58F3BA17620773078407B5
:1011A000950720F079F4A6F50C946E0A0EF4E095FC
:1011B0000B2EBA2FA02D0B01B90190010C01CA0111
:1011C000A0011124FF27591B99F0593F50F4503EBC
:1011D00068F11A16F040A22F232F342F4427585FAE
:1011E000F3CF469537952795A795F0405395C9F7C6
:1011F0007EF41F16BA0B620B730B840BBAF091507E
:10120000A1F0FF0FBB1F661F771F881FC2F70EC01C
:10121000BA0F621F731F841F48F4879577956795EF
:10122000B795F7959E3F08F0B0CF9395880F08F0DB
:101230009927EE0F9795879508950E94000A08F464
:1012400081E008950E9436090C943B0A0E94340AFA
:1012500058F00E942D0A40F029F45F3F29F00C94C9
:10126000240A51110C946F0A0C942A0A0E944C0A09
:1012700068F39923B1F3552391F3951B550BBB27C5
:10128000AA2762177307840738F09F5F5F4F220F0A
:10129000331F441FAA1FA9F335D00E2E3AF0E0E801
:1012A00032D091505040E695001CCAF72BD0FE2F4B
:1012B00029D0660F771F881FBB1F261737074807DF
:1012C000AB07B0E809F0BB0B802DBF01FF27935897
:1012D0005F4F3AF09E3F510578F00C94240A0C942D
:1012E0006F0A5F3FE4F3983ED4F386957795679550
:1012F000B795F7959F5FC9F7880F911D96958795CC
:1013000097F90895E1E0660F771F881FBB1F6217EA
:1013100073078407BA0720F0621B730B840BBA0BA8
:10132000EE1F88F7E09508950E94540A88F09F57B1
:1013300098F0B92F9927B751B0F0E1F0660F771FF9
:10134000881F991F1AF0BA95C9F714C0B13091F0EF
:101350000E946E0AB1E008950C946E0A672F782FF0
:101360008827B85F39F0B93FCCF3869577956795B4
:10137000B395D9F73EF490958095709561957F4F20
:101380008F4F9F4F0895E89409C097FB3EF49095C6
:101390008095709561957F4F8F4F9F4F9923A9F04E
:1013A000F92F96E9BB279395F695879577956795DD
:1013B000B795F111F8CFFAF4BB0F11F460FF1BC021
:1013C0006F5F7F4F8F4F9F4F16C0882311F096E9B4
:1013D00011C0772321F09EE8872F762F05C0662362
:1013E00071F096E8862F70E060E02AF09A95660F1B
:1013F000771F881FDAF7880F9695879597F90895D4
:10140000990F0008550FAA0BE0E8FEEF1616170615
:10141000E807F907C0F012161306E407F50798F07D
:10142000621B730B840B950B39F40A2661F0232B96
:10143000242B252B21F408950A2609F4A140A69512
:101440008FEF811D811D089597F99F6780E870E0F7
:1014500060E008959FEF80EC089500240A9416162A
:10146000170618060906089500240A941216130692
:10147000140605060895092E0394000C11F4882320
:1014800052F0BB0F40F4BF2B11F460FF04C06F5F3C
:101490007F4F8F4F9F4F089557FD9058440F551F12
:1014A00059F05F3F71F04795880F97FB991F61F0E6
:1014B0009F3F79F087950895121613061406551F5D
:1014C000F2CF4695F1DF08C0161617061806991FC9
:1014D000F1CF86957105610508940895E894BB27BE
:1014E00066277727CB0197F908950E94000A08F430
:1014F0008FEF08950E948D0A0C943B0A0E942D0ADA
:1015000038F00E94340A20F0952311F00C94240A3C
:101510000C942A0A11240C946F0A0E944C0A70F34E
:10152000959FC1F3950F50E0551F629FF001729F88
:10153000BB27F00DB11D639FAA27F00DB11DAA1F97
:10154000649F6627B00DA11D661F829F2227B00DE4
:10155000A11D621F739FB00DA11D621F839FA00D6F
:10156000611D221F749F3327A00D611D231F849FBF
:10157000600D211D822F762F6A2F11249F57504016
:101580009AF0F1F088234AF0EE0FFF1FBB1F661F91
:10159000771F881F91505040A9F79E3F510580F05A
:1015A0000C94240A0C946F0A5F3FE4F3983ED4F342
:1015B000869577956795B795F795E7959F5FC1F7FE
:1015C000FE2B880F911D9695879597F908950E9497
:1015D000000A880B990B0895A1E21A2EAA1BBB1BC7
:1015E000FD010DC0AA1FBB1FEE1FFF1FA217B307EF
:1015F000E407F50720F0A21BB30BE40BF50B661F05
:10160000771F881F991F1A9469F7609570958095C8
:1016100090959B01AC01BD01CF010895EE0FFF1F16
:101620000590F491E02D099481E090E0F8940C94F9
:06163000190BF894FFCF36
:1016360000000000C3013F018C016A017E010A021D
:10164600000000008A0276023D023A0237023602A4
:101656000D0A006E616E00696E66006F7666007038
:1016660048206D65746572206578706572696D6570
:101676006E742100566F6C746167653A00202020F5
:101686002070482076616C75653A20002020202065
:10169600202020646F7369657253746172747320BD
:1016A600002020202020202070756D70654D6F640D
:0416B60065200000AB
:00000001FF
